:0400000053EF03F0C7
:08000800046ED8CF05F0E0CF33
:1000100006F00001E9CF0CF0EACF07F0E1CF08F0DD
:10002000E2CF09F0D9CF0AF0DACF0BF0F3CF12F01C
:10003000F4CF13F0FACF14F0F5CF15F0F6CF16F099
:10004000F7CF17F000C00EF001C00FF002C010F0A3
:1000500003C011F0F2A830EF00F0F2B243EF01F06C
:100060000EC000F00FC001F010C002F011C003F08C
:100070000CC0E9FF07C0EAFF078E08C0E1FF09C016
:10008000E2FF0AC0D9FF0BC0DAFF12C0F3FF13C0B2
:10009000F4FF14C0FAFF15C0F5FF16C0F6FF17C035
:1000A000F7FF045006C0E0FF05C0D8FF1000466A05
:1000B0009588000E83B8010E4612958A000E83BA09
:1000C000010E006ED890003600504612958C000E3E
:1000D00083BC010E006E00360036FC0E0016005088
:1000E0004612958E000E83BE010E006E003600365D
:1000F0000036F80E00160050461246C001F01200FD
:100100009588958A958C958E8C82959200008C842A
:1001100095940000CCDF01C045F08C9495940000CC
:100120008C8495940000C3DF01C044F08C949594B6
:100130009598959A959C959E4538006EF00E001600
:1001400000504410016E120045B002D08C9801D0CE
:100150008C88959845B202D08C9A01D08C8A959A59
:1001600045B402D08C9C01D08C8C959C45B602D0B5
:100170008C9E01D08C8E959E00008C84959400D02E
:100180008C94959412009594959095928C9095905E
:10019000B7DF01C044F001BEFBD7425202E18C90B0
:1001A00001D08C80959000008C92959200008C94E8
:1001B00095944338446E0F0E441644C045F0C4DF96
:1001C00043500F0B446E456EBFDF12003F2C01D031
:1001D00003D0400E406E01D0406A010E3E5C4026C6
:1001E00040508009416E426A436ECDDF1200EA6AD8
:1001F0003E0EE96EEF500EE0010E016E006A002E19
:10020000FED7012EFBD74A0E006E002EFED700D07F
:10021000EF2EF2D712003D50070A07E00B0A0AE062
:10022000060A10E0020A14E018D0010E3E6E3F6E7E
:10023000CDDF18D0426A010E436EA5DF020E3E6E7E
:10024000D6DF10D0010E3E6E020E3F6EBFDF0AD029
:10025000426A100E436E97DF05D0010E426E3DC01C
:1002600043F091DF12000900F5520CE0F6CF3BF0AD
:10027000F7CF3CF0F5CF3DF0CEDF3BC0F6FF3CC002
:10028000F7FFF1D71200A00EF66E020EF76EEBDF4D
:10029000279096928D9296908D90F29230EF00F08A
:1002A000454D455247454E434941200C000073756A
:1002B0006269656E646F000062616A616E646F00FE
:1002C0005069736F202569005069736F202569009C
:1002D0007069736F20256900280E2B6E0C0E2C6E32
:1002E000010E2D6E060E2E6E8C9495948C9095902A
:1002F0008C9295929598959A959C959E95949590AB
:100300009592196AF2BE198EF29E0F0E3E6E6FDF45
:1003100019BEF28E010E2A6E2A50030814E3196AE0
:10032000F2BE198EF29E030E456E0EDF19BEF28EDE
:10033000196AF2BE198EF29E050E3E6E58DF19BE86
:10034000F28E2A2AE9D7196AF2BE198EF29E020E9F
:10035000456EFADE19BEF28E196AF2BE198EF29E51
:10036000050E3E6E44DF19BEF28E2A6A2A5003083B
:1003700013E3036A2A502B0FE96E000E0320EA6E86
:10038000EFCF43F0196AF2BE198EF29E426AFBDE8D
:1003900019BEF28E2A2AEAD77EEF03F00900F6CFC3
:1003A0002BF0F7CF2CF0196AF2BE198EF29EF5CF22
:1003B0003DF031DF19BEF28E2BC0F6FF2CC0F7FFE7
:1003C0002A2EECD712003150016A305C03E230C0B3
:1003D00000F00CD0006A080E326E30360036315014
:1003E000005CD8B0006E0136322EF7D71200200E16
:1003F0002BA8300E2C6E2AC000F02AAE08D0001EAA
:10040000002A00C02AF02D0E2C6E2B8E2B8001505E
:100410002AC030F0640E316ED6DF00C02AF0300EF4
:1004200001242D6E2AC030F00A0E316ECCDF300E62
:1004300000242F6E300E01242E6E2CC000F0300EE2
:100440002D5C04E02B822BBE2B8412D02CC02DF00F
:10045000200E2C6E300E2E5C04E02B802BBE2B82E7
:1004600007D0D8A42B8004E12DC02EF0200E2D6ED5
:100470002BB405D02BB20CD02BB013D01BD0196AE3
:10048000F2BE198EF29E2CC03DF0C5DE19BEF28E72
:10049000196AF2BE198EF29E2DC03DF0BCDE19BE67
:1004A000F28E196AF2BE198EF29E2EC03DF0B3DEB6
:1004B00019BEF28E196AF2BE198EF29E2FC03DF05F
:1004C000AADE19BEF28E1200336A346A010E356E4E
:1004D000DA6AD96A386A2B0E376EEA6A2F0EE96E2D
:1004E00038C0E2FF37C0E1FF35C036F0D890E550A4
:1004F000EE02F3503322F4503422362EF7D733C0B5
:10050000DEFF34C033F0346AD8B0342A372AD8B486
:10051000382A352A35500508E0E11200196AF2BE82
:10052000198EF29E010E3E6E3F6E50DE19BEF28EA7
:10053000AE0EF66E020EF76E196AF2BE198EF29EBC
:1005400092DE19BEF28E96908D802E6A2D6A2C6AEC
:100550002AC02BF01DC032F01CC031F01BC030F09F
:100560001AC02FF0B1DF03C02EF002C02DF001C081
:100570002CF000C02BF001C02FF02F2A2F06D8B48A
:1005800009D0196AF2BE198EF29E3E6830DE19BE9D
:10059000F28EF4D7196AF2BE198EF29E2BC03EF08D
:1005A00026DE19BEF28E96908D90196AF2BE198ED3
:1005B000F29E0C0E3D6E2FDE19BEF28EB7EF03F0E9
:1005C00092928992929089801FC02AF02A2A2A0644
:1005D000D8B409D0196AF2BE198EF29E3E6807DEC1
:1005E00019BEF28EF4D7196AF2BE198EF29E1EC0A1
:1005F0003EF0FDDD19BEF28E929089909292899222
:100600001200196AF2BE198EF29E010E3E6E3F6E06
:10061000DDDD19BEF28EB80EF66E020EF76E196AA7
:10062000F2BE198EF29E1FDE19BEF28E96928D8258
:100630002E6A2D6A2C6A2AC02BF01DC032F01CC015
:1006400031F01BC030F01AC02FF03EDF03C02EF097
:1006500002C02DF001C02CF000C02BF001C02FF023
:100660002F2A2F06D8B409D0196AF2BE198EF29E2D
:100670003E68BDDD19BEF28EF4D7196AF2BE198E3E
:10068000F29E2BC03EF0B3DD19BEF28E96928D9293
:10069000196AF2BE198EF29E0C0E3D6EBCDD19BEBB
:1006A000F28EDCEF03F0F86AD09E078E600ED36EF8
:1006B000D3501D6A1C6A030E1B6EE80E1A6E216A67
:1006C000206A130E1F6E880E1E6E010E226E010E22
:1006D000236E246A256A266A27802782296A286A67
:1006E000C150C00B0F09C16E070EB46EFF0E926EA3
:1006F000936E946E000E926E926EEED5F288C00EDE
:10070000F212F18C196AF2BE198EF29E010E3E6E43
:100710003F6E5CDD19BEF28EC00EF66E020EF76EF5
:10072000050E2A6E3BDE22C02AF0180E2B6E5FDE0D
:1007300027A05DD0948082A002D0010E226E948208
:1007400082A202D0020E226E948482A402D0030EF2
:10075000226E948882A802D0040E226E2250235C5E
:1007600020E22350225C246E24C02AF0D7D6196AD6
:10077000F2BE198EF29E010E3E6E3F6E27DD19BE4F
:10078000F28EC80EF66E020EF76E050E2A6E06DEAB
:1007900022C02AF0180E2B6E2ADE12DF22C023F0B0
:1007A000DDD72350225C22E2000ED880225423247D
:1007B000246E24C02AF025D7196AF2BE198EF29E43
:1007C000010E3E6E3F6E02DD19BEF28ED00EF66E49
:1007D000020EF76E050E2A6EE1DD22C02AF0180E19
:1007E0002B6E05DEEDDE22C023F0DBD7A1D70300A0
:020000040030CA
:0E00000027C03E1E0087A1000FC00FE00F407A
:00000001FF
;PIC18F4550
;CRC=3AA5  CREATED="13-ago.-22 15:01"
