:0400000009EF04F010
:08000800046ED8CF05F0E0CF33
:1000100006F00001E9CF0CF0EACF07F0E1CF08F0DD
:10002000E2CF09F0D9CF0AF0DACF0BF0F3CF12F01C
:10003000F4CF13F0FACF14F0F5CF15F0F6CF16F099
:10004000F7CF17F000C00EF001C00FF002C010F0A3
:1000500003C011F0F2AA30EF00F0F2B49FEF01F00C
:10006000F2A836EF00F0F2B2D8EF01F00EC000F0C7
:100070000FC001F010C002F011C003F00CC0E9FF86
:1000800007C0EAFF078E08C0E1FF09C0E2FF0AC00F
:10009000D9FF0BC0DAFF12C0F3FF13C0F4FF14C086
:1000A000FAFF15C0F5FF16C0F6FF17C0F7FF0450A2
:1000B00006C0E0FF05C0D8FF10002CA206D02A2AF7
:1000C0002A503C0801E22B2A06D02B5028262A5021
:1000D00029262A6A2B6AA2EF01F04C6A9588000E45
:1000E00083B8010E4C12958A000E83BA010E006E81
:1000F000D890003600504C12958C000E83BC010E37
:10010000006E00360036FC0E001600504C12958E24
:10011000000E83BE010E006E003600360036F80E6B
:10012000001600504C124CC001F012009588958AC0
:10013000958C958E8C82959200008C84959400000D
:10014000CCDF01C04BF08C94959400008C84959486
:100150000000C3DF01C04AF08C9495949598959A5D
:10016000959C959E4B38006EF00E001600504A107C
:10017000016E12004BB002D08C9801D08C889598FB
:100180004BB202D08C9A01D08C8A959A4BB402D093
:100190008C9C01D08C8C959C4BB602D08C9E01D04F
:1001A0008C8E959E00008C84959400D08C949594B0
:1001B00012009594959095928C909590B7DF01C020
:1001C0004AF001BEFBD7485202E18C9001D08C80EE
:1001D000959000008C92959200008C9495944938EB
:1001E0004A6E0F0E4A164AC04BF0C4DF49500F0B3F
:1001F0004A6E4B6EBFDF1200452C01D003D0400E7B
:10020000466E01D0466A010E445C4626465080097F
:10021000476E486A496ECDDF12004350016A425C66
:1002200003E242C000F00CD0006A080E446E423671
:1002300000364350005CD8B0006E0136442EF7D72C
:100240001200EA6A440EE96EEF500EE0010E016EF4
:10025000006A002EFED7012EFBD74A0E006E002E3C
:10026000FED700D0EF2EF2D712004350070A07E066
:100270000B0A0AE0060A10E0020A14E018D0010E88
:10028000446E456EB9DF18D0486A010E496E91DFA1
:10029000020E446ED6DF10D0010E446E020E456E83
:1002A000ABDF0AD0486A100E496E83DF05D0010E1D
:1002B000486E43C049F07DDF1200015040C042F05B
:1002C000640E436EAADF00C040F00150300E07E11B
:1002D00041A20CD041B60AD041B8200E03D04196BD
:1002E00041984180012601C043F0BFDF40C042F089
:1002F0000A0E436E92DF00C040F00150300E06E15E
:1003000041B608D041A006D041B8200E012601C058
:1003100043F0ABDF300E402640C043F0A6DF1200B2
:100320000900F6CF41F0F7CF42F0F5CF43F09DDF63
:1003300041C0F6FF42C0F7FF402EF2D7120096945C
:100340008D74BBD6010E446E020E456E55DF28C07B
:1003500040F0110E416EB1DF890EF66E030EF76E9E
:10036000030E406EDDDF29C040F0110E416EA5DFA7
:10037000010E446E456E40DFE10ED76E7C0ED66EE8
:10038000F29436EF00F0253275203A2025327500C0
:100390000900F5520CE0F6CF40F0F7CF41F0F5CF71
:1003A00043F063DF40C0F6FF41C0F7FFF1D7120012
:1003B000010E446E456E20DFD20EF66E030EF76E10
:1003C000E7DF2C9096928D9296908D90F29236EF78
:1003D00000F0454D455247454E4349410000737575
:1003E0006269656E646F000062616A616E646F00CD
:1003F0005069736F20256900636F6D756E69636165
:1004000063696F6E2073657269616C200A0D00006C
:100410005069736F202569005069736F202569004A
:10042000280E306E0C0E316E010E326E060E336EDB
:100430008C9495948C9095908C9295929598959A91
:10044000959C959E959495909592196AF2BE198EF9
:10045000F29E0F0E446EF5DE19BEF28E010E2F6E67
:100460002F50030814E3196AF2BE198EF29E030E90
:100470004B6E80DE19BEF28E196AF2BE198EF29EA4
:10048000050E446EDEDE19BEF28E2F2AE9D7196AF8
:10049000F2BE198EF29E020E4B6E6CDE19BEF28E0B
:1004A000196AF2BE198EF29E050E446ECADE19BE9E
:1004B000F28E2F6A2F50030813E3036A2F50300F78
:1004C000E96E000E0320EA6EEFCF49F0196AF2BE22
:1004D000198EF29E486A6DDE19BEF28E2F2AEAD777
:1004E00041EF04F0200E30A8300E316E2FC000F026
:1004F0002FAE08D0001E002A00C02FF02D0E316E46
:10050000308E30800150196AF2BE198EF29E2FC0D3
:1005100042F0640E436E81DE19BEF28E00C02FF0F1
:10052000300E0124326E196AF2BE198EF29E2FC06F
:1005300042F00A0E436E71DE19BEF28E300E0024B8
:10054000346E300E0124336E31C000F0300E325C58
:1005500004E0308230BE308412D031C032F0200E40
:10056000316E300E335C04E0308030BE308207D014
:10057000D8A4308004E132C033F0200E326E30B4A3
:1005800005D030B20CD030B013D01BD0196AF2BEF7
:10059000198EF29E31C043F068DE19BEF28E196AE0
:1005A000F2BE198EF29E32C043F05FDE19BEF28EAB
:1005B000196AF2BE198EF29E33C043F056DE19BEA0
:1005C000F28E196AF2BE198EF29E34C043F04DDEEF
:1005D00019BEF28E12000900F5520DE0F6CF2FF091
:1005E000F7CF30F0F5509EA8FED7AD6E2FC0F6FFC6
:1005F00030C0F7FFF0D76DEF04F0386A396A010EAA
:100600003A6EDA6AD96A3D6A300E3C6EEA6A340E96
:10061000E96E3DC0E2FF3CC0E1FF3AC03BF0D8903C
:10062000E550EE02F3503822F45039223B2EF7D732
:1006300038C0DEFF39C038F0396AD8B0392A3C2AD0
:10064000D8B43D2A3A2A3A500508E0E11200196A66
:10065000F2BE198EF29E090E446E010E456ECCDD7F
:1006600019BEF28EDE0EF66E030EF76E196AF2BE3A
:10067000198EF29E8DDE19BEF28E96908D80336AB1
:10068000326A316A2FC030F01EC037F01DC036F01C
:100690001CC035F01BC034F0B0DF03C033F002C023
:1006A00032F001C031F000C030F001C034F0342A23
:1006B0003406D8B409D0196AF2BE198EF29E446885
:1006C000C0DD19BEF28EF4D7196AF2BE198EF29E01
:1006D00030C044F0B6DD19BEF28E96908D90196A46
:1006E000F2BE198EF29E0C0E436EBFDD19BEF28E65
:1006F00090EF04F0929289929290898020C02FF01E
:100700002F2A2F06D8B409D0196AF2BE198EF29E8C
:10071000446897DD19BEF28EF4D7196AF2BE198EBD
:10072000F29E1FC044F08DDD19BEF28E929089902A
:100730009292898220C02FF02F2A2F06D8B409D098
:10074000196AF2BE198EF29E44687BDD19BEF28EE4
:10075000F4D7196AF2BE198EF29E1FC044F071DD03
:1007600019BEF28E929289922C921200196AF2BEF0
:10077000198EF29E090E446E010E456E3DDD19BEC6
:10078000F28EE80EF66E030EF76E196AF2BE198E3F
:10079000F29EFEDD19BEF28E96928D82336A326A27
:1007A000316A2FC030F01EC037F01DC036F01CC0BB
:1007B00035F01BC034F021DF03C033F002C032F04B
:1007C00001C031F000C030F001C034F0342A3406EA
:1007D000D8B409D0196AF2BE198EF29E446831DD90
:1007E00019BEF28EF4D7196AF2BE198EF29E30C08D
:1007F00044F027DD19BEF28E96928D92196AF2BEF0
:10080000198EF29E0C0E436E30DD19BEF28EBBEFD8
:1008100004F0F86AD09E078E600ED36ED350B8965F
:10082000190EAF6EA60EAC6E900EAB6E1D0E1A6E4C
:100830001E6A1D6A030E1C6EE80E1B6E226A216A78
:10084000130E206E880E1F6E010E236E256A246A19
:10085000010E266E276A286A296A2A6A2B6A2C806A
:100860002C922E6A2D6AC150C00B0F09C16E070E63
:10087000B46EFF0E926E936E000E946E956E966E31
:10088000CFD5870ED56EE10ED76E7C0ED66EF28A6E
:10089000F288C00EF212F18C196AF2BE198EF29E25
:1008A000010E446E456EA8DC19BEF28EF00EF66E97
:1008B000030EF76E196AF2BE198EF29E050E406E97
:1008C0002FDD19BEF28E23C02FF0180E306E0ADE17
:1008D000F80EF66E030EF76E7ED62CA06DD09480C7
:1008E00082A003D02C82010E236E948282A203D0B8
:1008F0002C82020E236E948482A403D02C82030ED9
:10090000236E948882A803D02C82040E236E235079
:10091000265C26E22650235C276E27C02FF097D650
:10092000196AF2BE198EF29E010E446E456E64DCA9
:1009300019BEF28E100EF66E040EF76E196AF2BE34
:10094000198EF29E050E406EEBDC19BEF28E23C0AE
:100950002FF0180E306EC6DDCDDE23C026F0D7D7BF
:100960002650235C28E2000ED88023542624276ECC
:1009700027C02FF0FBD6196AF2BE198EF29E010E27
:10098000446E456E39DC19BEF28E180EF66E040EFA
:10099000F76E196AF2BE198EF29E050E406EC0DC2B
:1009A00019BEF28E23C02FF0180E306E9BDDA2DE32
:0A09B00023C026F0D5D791D703002D
:020000040030CA
:0E00000027C03E1E0087A1000FC00FE00F407A
:00000001FF
;PIC18F4550
;CRC=7108  CREATED="26-ago.-22 01:03"
