:04000000EBEF03F02F
:08000800046ED8CF05F0E0CF33
:1000100006F00001E9CF0CF0EACF07F0E1CF08F0DD
:10002000E2CF09F0D9CF0AF0DACF0BF0F3CF12F01C
:10003000F4CF13F0FACF14F0F5CF15F0F6CF16F099
:10004000F7CF17F000C00EF001C00FF002C010F0A3
:1000500003C011F0F2AA30EF00F0F2B49FEF01F00C
:10006000F2A836EF00F0F2B2D8EF01F00EC000F0C7
:100070000FC001F010C002F011C003F00CC0E9FF86
:1000800007C0EAFF078E08C0E1FF09C0E2FF0AC00F
:10009000D9FF0BC0DAFF12C0F3FF13C0F4FF14C086
:1000A000FAFF15C0F5FF16C0F6FF17C0F7FF0450A2
:1000B00006C0E0FF05C0D8FF10002BA206D0292AF9
:1000C00029503C0801E22A2A06D02A502726295026
:1000D0002826296A2A6AA2EF01F04B6A9588000E49
:1000E00083B8010E4B12958A000E83BA010E006E82
:1000F000D890003600504B12958C000E83BC010E38
:10010000006E00360036FC0E001600504B12958E25
:10011000000E83BE010E006E003600360036F80E6B
:10012000001600504B124BC001F012009588958AC2
:10013000958C958E8C82959200008C84959400000D
:10014000CCDF01C04AF08C94959400008C84959487
:100150000000C3DF01C049F08C9495949598959A5E
:10016000959C959E4A38006EF00E0016005049107E
:10017000016E12004AB002D08C9801D08C889598FC
:100180004AB202D08C9A01D08C8A959A4AB402D095
:100190008C9C01D08C8C959C4AB602D08C9E01D050
:1001A0008C8E959E00008C84959400D08C949594B0
:1001B00012009594959095928C909590B7DF01C020
:1001C00049F001BEFBD7475202E18C9001D08C80F0
:1001D000959000008C92959200008C9495944838EC
:1001E000496E0F0E491649C04AF0C4DF48500F0B44
:1001F000496E4A6EBFDF1200442C01D003D0400E7E
:10020000456E01D0456A010E435C45264550800984
:10021000466E476A486ECDDF12004250016A415C6B
:1002200003E241C000F00CD0006A080E436E413674
:1002300000364250005CD8B0006E0136432EF7D72E
:100240001200EA6A430EE96EEF500EE0010E016EF5
:10025000006A002EFED7012EFBD74A0E006E002E3C
:10026000FED700D0EF2EF2D712004250070A07E067
:100270000B0A0AE0060A10E0020A14E018D0010E88
:10028000436E446EB9DF18D0476A010E486E91DFA5
:10029000020E436ED6DF10D0010E436E020E446E86
:1002A000ABDF0AD0476A100E486E83DF05D0010E1F
:1002B000476E42C048F07DDF120001503FC041F060
:1002C000640E426EAADF00C03FF00150300E07E11D
:1002D00040A20CD040B60AD040B8200E03D04096C1
:1002E00040984080012601C042F0BFDF3FC041F08E
:1002F0000A0E426E92DF00C03FF00150300E06E160
:1003000040B608D040A006D040B8200E012601C05B
:1003100042F0ABDF300E3F263FC042F0A6DF1200B6
:100320000900F6CF40F0F7CF41F0F5CF42F09DDF66
:1003300040C0F6FF41C0F7FF3F2EF2D7120096945F
:100340008D74BBD6010E436E020E446E55DF27C07E
:100350003FF0110E406EB1DF890EF66E030EF76EA0
:10036000030E3F6EDDDF28C03FF0110E406EA5DFAB
:10037000010E436E446E40DFE10ED76E7C0ED66EEA
:10038000F29436EF00F0253275203A2025327500C0
:100390000900F5520CE0F6CF3FF0F7CF40F0F5CF73
:1003A00042F063DF3FC0F6FF40C0F7FFF1D7120015
:1003B000010E436E446E20DFD20EF66E030EF76E12
:1003C000E7DF2B9096928D9296908D90F29236EF79
:1003D00000F0454D455247454E4349410000737575
:1003E0006269656E646F000062616A616E646F00CD
:1003F0005069736F202569005069736F202569006B
:100400005069736F20256900280E2F6E0C0E306E18
:10041000010E316E060E326E8C9495948C909590F0
:100420008C9295929598959A959C959E9594959079
:100430009592196AF2BE198EF29E0F0E436E01DF7D
:1004400019BEF28E010E2E6E2E50030814E3196AA7
:10045000F2BE198EF29E030E4A6E8CDE19BEF28E2B
:10046000196AF2BE198EF29E050E436EEADE19BEBF
:10047000F28E2E2AE9D7196AF2BE198EF29E020E6A
:100480004A6E78DE19BEF28E196AF2BE198EF29E9D
:10049000050E436ED6DE19BEF28E2E6A2E5003086C
:1004A00013E3036A2E502F0FE96E000E0320EA6E4D
:1004B000EFCF48F0196AF2BE198EF29E476A79DED4
:1004C00019BEF28E2E2AEAD71AEF04F0200E2FA8BA
:1004D000300E306E2EC000F02EAE08D0001E002A66
:1004E00000C02EF02D0E306E2F8E2F800150196A15
:1004F000F2BE198EF29E2EC041F0640E426E8DDE69
:1005000019BEF28E00C02EF0300E0124316E196A31
:10051000F2BE198EF29E2EC041F00A0E426E7DDEB2
:1005200019BEF28E300E0024336E300E0124326E6E
:1005300030C000F0300E315C04E02F822FBE2F84DB
:1005400012D030C031F0200E306E300E325C04E03C
:100550002F802FBE2F8207D0D8A42F8004E131C076
:1005600032F0200E316E2FB405D02FB20CD02FB048
:1005700013D01BD0196AF2BE198EF29E30C042F021
:1005800074DE19BEF28E196AF2BE198EF29E31C067
:1005900042F06BDE19BEF28E196AF2BE198EF29E1F
:1005A00032C042F062DE19BEF28E196AF2BE198EB6
:1005B000F29E33C042F059DE19BEF28E1200376A45
:1005C000386A010E396EDA6AD96A3C6A2F0E3B6EC0
:1005D000EA6A330EE96E3CC0E2FF3BC0E1FF39C07E
:1005E0003AF0D890E550EE02F3503722F45038221A
:1005F0003A2EF7D737C0DEFF38C037F0386AD8B0A8
:10060000382A3B2AD8B43C2A392A39500508E0E177
:100610001200196AF2BE198EF29E090E436E010E87
:10062000446EEADD19BEF28EDE0EF66E030EF76E34
:10063000196AF2BE198EF29EABDE19BEF28E96904A
:100640008D80326A316A306A2EC02FF01DC036F0BC
:100650001CC035F01BC034F01AC033F0B0DF03C04B
:1006600032F002C031F001C030F000C02FF001C004
:1006700033F0332A3306D8B409D0196AF2BE198E82
:10068000F29E4368DEDD19BEF28EF4D7196AF2BE1F
:10069000198EF29E2FC043F0D4DD19BEF28E9690D3
:1006A0008D90196AF2BE198EF29E0C0E426EDDDD3F
:1006B00019BEF28E64EF04F0929289929290898032
:1006C0001FC02EF02E2A2E06D8B409D0196AF2BE09
:1006D000198EF29E4368B5DD19BEF28EF4D7196A01
:1006E000F2BE198EF29E1EC043F0ABDD19BEF28E33
:1006F00092908990929289821FC02EF02E2A2E0607
:10070000D8B409D0196AF2BE198EF29E436899DDF9
:1007100019BEF28EF4D7196AF2BE198EF29E1EC06F
:1007200043F08FDD19BEF28E929289922B921200C5
:10073000196AF2BE198EF29E090E436E010E446EC6
:100740005BDD19BEF28EE80EF66E030EF76E196AC7
:10075000F2BE198EF29E1CDE19BEF28E96928D822A
:10076000326A316A306A2EC02FF01DC036F01CC0CC
:1007700035F01BC034F01AC033F021DF03C032F073
:1007800002C031F001C030F000C02FF001C033F0E2
:10079000332A3306D8B409D0196AF2BE198EF29EF4
:1007A00043684FDD19BEF28EF4D7196AF2BE198E76
:1007B000F29E2FC043F045DD19BEF28E96928D92C7
:1007C000196AF2BE198EF29E0C0E426E4EDD19BEF3
:1007D000F28E8FEF04F0F86AD09E078E600ED36E13
:1007E000D3501D6A1C6A030E1B6EE80E1A6E216A36
:1007F000206A130E1F6E880E1E6E010E226E246A72
:10080000236A010E256E266A276A286A296A2A6ADF
:100810002B802B922D6A2C6AC150C00B0F09C16E20
:10082000070EB46EFF0E926E936E946E000E956E70
:10083000966EEAD5870ED56EE10ED76E7C0ED66E1B
:10084000F28AF288C00EF212F18C196AF2BE198E89
:10085000F29E010E436E446ECFDC19BEF28EF00E96
:10086000F66E030EF76E196AF2BE198EF29E050E31
:100870003F6E56DD19BEF28E22C02EF0180E2F6E7E
:1008800025DE2BA06DD0948082A003D02B82010E98
:10089000226E948282A203D02B82020E226E948456
:1008A00082A403D02B82030E226E948882A803D0E8
:1008B0002B82040E226E2250255C26E22550225CFB
:1008C000266E26C02EF0A5D6196AF2BE198EF29EAB
:1008D000010E436E446E90DC19BEF28EF80EF66E79
:1008E000030EF76E196AF2BE198EF29E050E3F6E68
:1008F00017DD19BEF28E22C02EF0180E2F6EE6DD27
:10090000DBDE22C025F0D7D72550225C28E2000E7E
:10091000D88022542524266E26C02EF009D7196AC5
:10092000F2BE198EF29E010E436E446E65DC19BE56
:10093000F28E000EF66E040EF76E196AF2BE198E74
:10094000F29E050E3F6EECDC19BEF28E22C02EF038
:10095000180E2F6EBBDDB0DE22C025F0D5D791D7A3
:02096000030092
:020000040030CA
:0E00000027C03E1E0087A1000FC00FE00F407A
:00000001FF
;PIC18F4550
;CRC=75EA  CREATED="15-ago.-22 21:10"
