:0400000098EF04F081
:08000800046ED8CF05F0E0CF33
:1000100006F00001E9CF0CF0EACF07F0E1CF08F0DD
:10002000E2CF09F0D9CF0AF0DACF0BF0F3CF12F01C
:10003000F4CF13F0FACF14F0F5CF15F0F6CF16F099
:10004000F7CF17F000C00EF001C00FF002C010F0A3
:1000500003C011F0F2AA30EF00F0F2B426EF02F084
:10006000F2A836EF00F0F2B25FEF02F0F2A63CEF3A
:1000700000F0F2B077EF00F00EC000F00FC001F01A
:1000800010C002F011C003F00CC0E9FF07C0EAFF86
:10009000078E08C0E1FF09C0E2FF0AC0D9FF0BC00C
:1000A000DAFF12C0F3FF13C0F4FF14C0FAFF15C04B
:1000B000F5FF16C0F6FF17C0F7FF045006C0E0FFBB
:1000C00005C0D8FF1000EA6A450EE96EEF500EE059
:1000D000010E016E006A002EFED7012EFBD74A0EDC
:1000E000006E002EFED700D0EF2EF2D712009488BB
:1000F00082A813D01BC002F01AC001F002320132F4
:1001000002320132023201C0BEFF02320230300B35
:10011000006EBD50CF0B0010BD6E948A82AA13D022
:100120001BC002F01AC001F0023201320232013269
:10013000023201C0BEFF02320230300B006EBD50F1
:10014000CF0B0010BD6E948882B81DD0938881B803
:100150001AD093988A98939A8A9A94988B98949A9A
:100160008B9AF00EBD16BA1694928B9294948B943F
:100170000A0E456EA8DF94948B940C0EBD6EB76A80
:10018000B66A94988B88948A82BA1ED0938A81BA70
:100190001AD093988A98939A8A9A94988B98949A5A
:1001A0008B9AF00EBD16BA1694928B9294948B94FF
:1001B0000A0E456E88DF94928B920C0EBA6E94985C
:1001C0008B88949A8B9A11D093988A98F00EBD16CA
:1001D000BA1693988A98939A8A9A94988B98949A34
:1001E0008B9A94928B9294948B94F2903CEF00F0C3
:1001F0002DA206D02B2A2B503C0801E22C2A06D037
:100200002C5029262B502A262B6A2C6A29EF02F023
:100210004D6A9588000E83B8010E4D12958A000E26
:1002200083BA010E006ED890003600504D12958CA6
:10023000000E83BC010E006E00360036FC0E001668
:1002400000504D12958E000E83BE010E006E0036DA
:1002500000360036F80E001600504D124DC001F069
:1002600012009588958A958C958E8C8295920000C7
:100270008C8495940000CCDF01C04CF08C94959454
:1002800000008C8495940000C3DF01C04BF08C9477
:1002900095949598959A959C959E4C38006EF00E85
:1002A000001600504B10016E12004CB002D08C981A
:1002B00001D08C8895984CB202D08C9A01D08C8A4F
:1002C000959A4CB402D08C9C01D08C8C959C4CB6E9
:1002D00002D08C9E01D08C8E959E00008C849594CB
:1002E00000D08C94959412009594959095928C9052
:1002F0009590B7DF01C04BF001BEFBD7495202E138
:100300008C9001D08C80959000008C92959200008A
:100310008C9495944A384B6E0F0E4B164BC04CF094
:10032000C4DF4A500F0B4B6E4C6EBFDF1200462CE1
:1003300001D003D0400E476E01D0476A010E455CE4
:10034000472647508009486E496A4A6ECDDF120041
:100350004450016A435C03E243C000F00CD0006AE1
:10036000080E456E433600364450005CD8B0006E2F
:100370000136452EF7D712004450070A07E00B0A52
:100380000AE0060A10E0020A14E018D0010E456ED9
:10039000466ECDDF18D0496A010E4A6EA5DF020E07
:1003A000456E91DE10D0010E456E020E466EBFDF27
:1003B0000AD0496A100E4A6E97DF05D0010E496EC9
:1003C00044C04AF091DF1200015041C043F0640E76
:1003D000446EBEDF00C041F00150300E07E142A282
:1003E0000CD042B60AD042B8200E03D042964298B2
:1003F0004280012601C044F0BFDF41C043F00A0E35
:10040000446EA6DF00C041F00150300E06E142B656
:1004100008D042A006D042B8200E012601C044F008
:10042000ABDF300E412641C044F0A6DF12000900C8
:10043000F6CF42F0F7CF43F0F5CF44F09DDF42C056
:10044000F6FF43C0F7FF412EF2D7120096948D7449
:10045000CFD6010E456E020E466E69DF29C041F00F
:10046000110E426EB1DF970EF66E040EF76E030E9C
:10047000416EDDDF2AC041F0110E426EA5DF010E94
:10048000456E466E54DFE10ED76E7C0ED66EF2944A
:100490003CEF00F0253275203A2025327500090026
:1004A000F5520CE0F6CF41F0F7CF42F0F5CF44F033
:1004B00063DF41C0F6FF42C0F7FFF1D71200010E23
:1004C000456E466E34DFE00EF66E040EF76EE7DF23
:1004D0002D9096928D9296908D90F2923CEF00F036
:1004E000454D455247454E43494100007375626989
:1004F000656E646F000062616A616E646F005069CE
:10050000736F202569005069736F20256900506959
:10051000736F20256900280E316E0C0E326E010EAD
:10052000336E060E346E8C9495948C9095908C92CC
:1005300095929598959A959C959E9594959095925F
:10054000196AF2BE198EF29E0F0E456EBCDD19BE01
:10055000F28E010E306E3050030814E3196AF2BEB9
:10056000198EF29E030E4C6EA0DE19BEF28E196A31
:10057000F2BE198EF29E050E456EA5DD19BEF28EF5
:10058000302AE9D7196AF2BE198EF29E020E4C6E1D
:100590008CDE19BEF28E196AF2BE198EF29E050E1D
:1005A000456E91DD19BEF28E306A3050030813E3B8
:1005B000036A3050310FE96E000E0320EA6EEFCF70
:1005C0004AF0196AF2BE198EF29E496A8DDE19BE92
:1005D000F28E302AEAD7C7EF04F0200E31A8300E91
:1005E000326E30C000F030AE08D0001E002A00C0CD
:1005F00030F02D0E326E318E31800150196AF2BE0C
:10060000198EF29E30C043F0640E446EA1DE19BE16
:10061000F28E00C030F0300E0124336E196AF2BE43
:10062000198EF29E30C043F00A0E446E91DE19BE60
:10063000F28E300E0024356E300E0124346E32C03E
:1006400000F0300E335C04E0318231BE318412D0D0
:1006500032C033F0200E326E300E345C04E0318054
:1006600031BE318207D0D8A4318004E133C034F0E8
:10067000200E336E31B405D031B20CD031B013D06E
:100680001BD0196AF2BE198EF29E32C044F074DE9D
:1006900019BEF28E196AF2BE198EF29E33C044F072
:1006A0006BDE19BEF28E196AF2BE198EF29E34C04C
:1006B00044F062DE19BEF28E196AF2BE198EF29E05
:1006C00035C044F059DE19BEF28E1200C050C00B86
:1006D0000209C06EC08EC280C150C00B0E09C16E2F
:1006E000000E016EC250C30B0110C26E000E06094F
:1006F000CA6E7F0ECB6E020E306E196AF2BE198E74
:10070000F29EFA0E456EDFDC19BEF28E302EF5D762
:10071000F0EF04F0396A3A6A010E3B6EDA6AD96A80
:100720003E6A310E3D6EEA6A350EE96E3EC0E2FF6A
:100730003DC0E1FF3BC03CF0D890E550EE02F350E5
:100740003922F4503A223C2EF7D739C0DEFF3AC0A6
:1007500039F03A6AD8B03A2A3D2AD8B43E2A3B2A20
:100760003B500508E0E11200196AF2BE198EF29EB4
:10077000090E456E010E466EDADD19BEF28EEC0EE4
:10078000F66E040EF76E196AF2BE198EF29E87DEBF
:1007900019BEF28E94928B82346A336A326A30C008
:1007A00031F01FC038F01EC037F01DC036F01CC03D
:1007B00035F0B0DF03C034F002C033F001C032F0D6
:1007C00000C031F001C035F0352A3506D8B409D063
:1007D000196AF2BE198EF29E456875DC19BEF28E5A
:1007E000F4D7196AF2BE198EF29E31C045F06BDC67
:1007F00019BEF28E94948B94196AF2BE198EF29EF1
:100800000C0E446EB9DD19BEF28E1AEF05F0969EFD
:100810008D9E939C8A8C21C030F0302A3006D8B44B
:1008200009D0196AF2BE198EF29E45684CDC19BED9
:10083000F28EF4D7196AF2BE198EF29E20C045F0EE
:1008400042DC19BEF28E939C8A9C939E8A8E21C0B4
:1008500030F0302A3006D8B409D0196AF2BE198EA9
:10086000F29E456830DC19BEF28EF4D7196AF2BEEA
:10087000198EF29E20C045F026DC19BEF28E939EA2
:100880008A9E2D921200196AF2BE198EF29E090EEE
:10089000456E010E466E4BDD19BEF28EF60EF66EFB
:1008A000040EF76E196AF2BE198EF29EF8DD19BEBB
:1008B000F28E94928B82346A336A326A30C031F09D
:1008C0001FC038F01EC037F01DC036F01CC035F018
:1008D00021DF03C034F002C033F001C032F000C0A9
:1008E00031F001C035F0352A3506D8B40AD0196A7E
:1008F000F2BE198EF29E456863EC00F019BEF28ECE
:10090000F3D7196AF2BE198EF29E31C045F063EC3E
:1009100000F019BEF28E94948B94196AF2BE198E6F
:10092000F29E0C0E446E28DD19BEF28E45EF05F0E6
:10093000F86AD09E078E600ED36ED3501F6A1E6A6F
:10094000030E1D6EE80E1C6E236A226A130E216EC2
:10095000880E206E010E246E266A256A010E276E0F
:10096000286A296A2A6A2B6A2C6A2D802D922F6A9E
:100970002E6AC150C00B0F09C16E070EB46EFF0E78
:10098000926E936E000E946E956E966EC4D5870E21
:10099000D56EE10ED76E7C0ED66EF28AF288C00E4E
:1009A000F212F286F18C196AF2BE198EF29E010ED5
:1009B000456E466EBCDC19BEF28EFE0EF66E040E5F
:1009C000F76E196AF2BE198EF29E050E416E2FDD8A
:1009D00019BEF28E24C030F0180E316EFEDD76D6D0
:1009E0002DA074D0C282C2B2FED7C3CF1AF0C4CF3A
:1009F0001BF0928480A403D02D82010E246E928677
:100A000080A603D02D82020E246E928880A803D087
:100A10002D82030E246E928A80AA03D02D82040EAA
:100A2000246E2450275C26E22750245C286E28C0C0
:100A300030F09AD6196AF2BE198EF29E010E456EFA
:100A4000466E75DC19BEF28E060EF66E050EF76E5A
:100A5000196AF2BE198EF29E050E416EE8DC19BECF
:100A6000F28E24C030F0180E316EB7DDD0DE24C017
:100A700027F0D7D72750245C28E2000ED8802454D2
:100A80002724286E28C030F0FED6196AF2BE198ECF
:100A9000F29E010E456E466E4ADC19BEF28E0E0EB7
:100AA000F66E050EF76E196AF2BE198EF29E050EED
:100AB000416EBDDC19BEF28E24C030F0180E316ECE
:0E0AC0008CDDA5DE24C027F0D5D78AD7030031
:020000040030CA
:0E00000027C03E1E0087A1000FC00FE00F407A
:00000001FF
;PIC18F4550
;CRC=779F  CREATED="23-ago.-22 02:08"
